:100000000C940A030C9432030C9432030C943203C4
:100010000C9432030C9432030C9432030C9432038C
:100020000C9432030C9432030C9432030C9432037C
:100030000C9432030C9432030C9432030C9432036C
:100040000C94BB0F0C9432030C94890F0C94630F27
:100050000C9432030C9432030C9432030C9432034C
:100060000C9405100C94320308000000BE92244941
:10007000123EABAAAA2ABECDCCCC4C3E00000080DA
:10008000BEABAAAAAA3E00000000BF000000803F4D
:100090000000000000084178D3BB4387D1133D190D
:1000A0000E3CC3BD4282AD2B3E68EC8276BED98F3A
:1000B000E1A93E4C80EFFFBE01C4FF7F3F0000007E
:1000C000000000000000003E5B4F5B3E3E6B4F6B4C
:1000D0003E1C3E7C3E1C183C7E3C181C577D571C29
:1000E0001C5E7F5E1C00183C1800FFE7C3E7FF00A2
:1000F00018241800FFE7DBE7FF30483A060E2629F0
:10010000792926407F050507407F05253F5A3CE7B2
:100110003C5A7F3E1C1C08081C1C3E7F14227F2278
:10012000145F5F005F5F06097F017F006689956A43
:10013000606060606094A2FFA29408047E040810CE
:10014000207E201008082A1C08081C2A08081E10F7
:100150001010100C1E0C1E0C30383E3830060E3EAF
:100160000E06000000000000005F0000000700070E
:1001700000147F147F14242A7F2A12231308646238
:1001800036495620500008070300001C2241000099
:1001900041221C002A1C7F1C2A08083E08080080F7
:1001A000703000080808080800006060002010088F
:1001B00004023E5149453E00427F40007249494990
:1001C000462141494D331814127F102745454539C2
:1001D0003C4A4949314121110907364949493646C6
:1001E0004949291E000014000000403400000008A6
:1001F0001422411414141414004122140802015949
:1002000009063E415D594E7C1211127C7F494949D5
:10021000363E414141227F4141413E7F494949416A
:100220007F090909013E414151737F0808087F0099
:10023000417F41002040413F017F081422417F401F
:100240004040407F021C027F7F0408107F3E4141F6
:10025000413E7F090909063E4151215E7F09192966
:1002600046264949493203017F01033F4040403F50
:100270001F2040201F3F4038403F63140814630391
:10028000047804036159494D43007F414141020410
:10029000081020004141417F040201020440404017
:1002A0004040000307080020545478407F2844440D
:1002B000383844444428384444287F385454541827
:1002C00000087E090218A4A49C787F080404780022
:1002D000447D40002040403D007F10284400004104
:1002E0007F40007C047804787C0804047838444417
:1002F0004438FC1824241818242418FC7C0804040E
:1003000008485454542404043F44243C4040207C76
:100310001C2040201C3C4030403C44281028444CC9
:100320009090907C4464544C440008364100000096
:10033000770000004136080002010204023C262337
:10034000263C1EA1A161123A4040207A38545455EF
:1003500059215555794122545478422155547840B9
:1003600020545579400C1E52721239555555593941
:100370005454545939555454580000457C41000296
:10038000457D420001457C407D1211127DF02825FB
:1003900028F07C545545002054547C547C0A097F35
:1003A0004932494949323A4444443A324A48483049
:1003B0003A4141217A3A42402078009DA0A07D3DFB
:1003C0004242423D3D4040403D3C24FF2424487E83
:1003D0004943662B2FFC2F2BFF0929F620C0887E6E
:1003E000090320545479410000447D413048484A73
:1003F00032384040227A007A0A0A727D0D19317D26
:100400002629292F28262929292630484D402038F9
:100410000808080808080808382F10C8ACBA2F10B8
:100420002834FA00007B000008142A142222142A1F
:1004300014085500550055AA55AA55AAFF55FF5551
:10044000FF000000FF00101010FF00141414FF0044
:100450001010FF00FF1010F010F0141414FC001422
:1004600014F700FF0000FF00FF1414F404FC141440
:1004700017101F10101F101F1414141F001010103D
:10048000F0000000001F101010101F10101010F0CE
:1004900010000000FF101010101010101010FF10AE
:1004A000000000FF140000FF00FF00001F101700F5
:1004B00000FC04F414141710171414F404F40000CE
:1004C000FF00F714141414141414F700F714141480
:1004D000171410101F101F141414F4141010F0101F
:1004E000F000001F101F0000001F14000000FC148B
:1004F0000000F010F01010FF10FF141414FF14107F
:1005000010101F00000000F010FFFFFFFFFFF0F0D1
:10051000F0F0F0FFFFFF0000000000FFFF0F0F0FE3
:100520000F0F3844443844FC4A4A4A347E020206DB
:1005300006027E027E0263554941633844443C040E
:10054000407E201E2006027E020299A5E7A5991C86
:100550002A492A1C4C7201724C304A4D4D303048A9
:10056000784830BC625A463D3E494949007E010107
:10057000017E2A2A2A2A2A44445F444440514A449C
:100580004040444A51400000FF0103E080FF00006A
:1005900008086B6B083612362436060F090F060062
:1005A0000018180000001010003040FF0101001F6B
:1005B00001011E00191D1712003C3C3C3C000000CC
:1005C0000000000000080002010000030407000012
:1005D00000000000000000000000240027002A00A6
:1005E00001020408102040800102040810200102CA
:1005F0000408102000000000250028002B0004043F
:1006000004040404040402020202020203030303BA
:100610000303201111241FBECFEFD8E0DEBFCDBFF2
:1006200013E0A0E0B1E0E2E4F7E302C005900D9230
:10063000A238B107D9F725E0A2E8B3E001C01D92C6
:10064000A131B207E1F713E0CAE0D3E004C021977B
:10065000FE010E946F1AC930D107C9F70E945F12CC
:100660000C949F1B0C940000FC0120812EBD0DB446
:1006700007FEFDCF2EB5FC0120830895DC01ED912E
:10068000FC910190F081E02D0994AF92BF92CF923E
:10069000DF92EF92FF920F931F93CF93DF936C0142
:1006A0007B018B01040F151FEB015E01AE18BF0823
:1006B000C017D10759F06991D601ED91FC910190D5
:1006C000F081E02DC6010995892B79F7C501DF91ED
:1006D000CF911F910F91FF90EF90DF90CF90BF903F
:1006E000AF900895FC01538D448D252F30E0842F69
:1006F00090E0821B930B541710F0CF96089501974A
:100700000895FC01918D828D981761F0A28DAE0F36
:10071000BF2FB11D5D968C91928D9F5F9F73928FBD
:1007200090E008958FEF9FEF0895FC01918D828DE9
:10073000981731F0828DE80FF11D858D90E00895B6
:100740008FEF9FEF0895FC01918D228D892F90E00E
:10075000805C9F4F821B91098F73992708958DEFBD
:1007600093E00E94A30321E0892B09F420E0822F6B
:10077000089580E090E0892B29F00E94AF03811159
:100780000C9400000895FC01A48DA80FB92FB11D91
:10079000A35ABF4F2C91848D90E001968F739927B7
:1007A000848FA689B7892C93A089B1898C91837095
:1007B00080648C93938D848D981306C00288F3898E
:1007C000E02D80818F7D80830895EF92FF920F93BB
:1007D0001F93CF93DF93EC0181E0888F9B8D8C8DED
:1007E00098131AC0E889F989808185FF15C09FB7E1
:1007F000F894EE89FF896083E889F98980818370A4
:10080000806480839FBF81E090E0DF91CF911F9152
:100810000F91FF90EF900895F62E0B8D10E00F5F73
:100820001F4F0F731127E02E8C8D8E110CC00FB649
:1008300007FCFACFE889F989808185FFF5CFCE01E1
:100840000E94C303F1CFEB8DEC0FFD2FF11DE35A96
:10085000FF4FF0829FB7F8940B8FEA89FB89808164
:100860008062CFCFCF93DF93EC01888D8823B9F0DE
:10087000AA89BB89E889F9898C9185FD03C08081AB
:1008800086FD0DC00FB607FCF7CF8C9185FFF2CF28
:10089000808185FFEDCFCE010E94C303E9CFDF91B8
:1008A000CF91089590E0FC01EE53FA4F2491FC01A2
:1008B000E052FA4F3491FC01E250FA4FE491EE23FA
:1008C000C9F0222339F0233001F1A8F4213019F1C5
:1008D000223029F1F0E0EE0FFF1FEC50FA4FA59106
:1008E000B4918FB7F894EC91611126C030953E23F6
:1008F0003C938FBF08952730A9F02830C9F02430E9
:1009000049F7809180008F7D03C0809180008F77B0
:1009100080938000DFCF84B58F7784BDDBCF84B533
:100920008F7DFBCF8091B0008F778093B000D2CFC6
:100930008091B0008F7DF9CF3E2BDACFCF93DF933C
:1009400090E0FC01E052FA4F249182509A4FFC0152
:1009500084918823D1F090E0880F991FFC01EA521E
:10096000FA4FA591B491FC01EC50FA4FC591D49186
:1009700061110EC09FB7F8948C91E22FE0958E2301
:100980008C932881E223E8839FBFDF91CF91089564
:100990008FB7F894EC91E22BEC938FBFF6CF8E508B
:1009A000806480937C0080917A00806480937A00D8
:1009B00080917A0086FDFCCF80917800909179003B
:1009C00008958230910538F0880F991F880F991F7C
:1009D00005970197F1F708959F92AF92BF92CF923A
:1009E000DF92EF92FF920F931F93CF93DF93EC016F
:1009F0006B018885998511E0892B09F010E8F601D3
:100A0000A0808A2D8123992493948111912C2C818B
:100A10003D814E815F8160E271EA87E090E00E9453
:100A20004E17022FB12CE22EF12C002319F0C70132
:100A30000E94E1048A85877F09F04FC08D858F3F32
:100A400089F09A2D912381E009F480E0891551F015
:100A5000EF85F8898F899923D1F19081892B808343
:100A600099249394E989FA898081998D892B8083CF
:100A7000002319F0C7010E94E1048E858F3F39F0F1
:100A8000EB89FC898081988D892309F0B12AE98955
:100A9000FA899081898D8095892380838E858F3F07
:100AA00011F0F601B08288859985892B09F044C040
:100AB000110F1111BACFDF91CF911F910F91FF90BC
:100AC000EF90DF90CF90BF90AF909F90089590816E
:100AD000809589238083912CC5CFE989FA8980810B
:100AE000998D892B8083002319F0C7010E94E104AE
:100AF0008D858F3F49F0EF85F8898F899A2D912355
:100B0000B9F09081892B8083E989FA899081898D58
:100B10008095892380838E858F3F09F4BFCFEB8931
:100B2000FC898081988D892309F4B8CFB12AB6CF8A
:100B3000908180958923E7CF1695BBCFAF92BF9266
:100B4000CF92DF92EF92FF920F931F93CF93DF9399
:100B50001F92CDB7DEB78C015B016A01DC018D917C
:100B60009C911197892B39F01296ED91FC9190810F
:100B700081819CBD8DBDF80183858F3F19F060E0B8
:100B80000E9452047501CA0CDB1CCE14DF04A9F0CC
:100B9000D7018D917D018983F80180819181892B15
:100BA00029F0CE0101960E943403EFCFBE016F5FA2
:100BB0007F4FC8010E94EC04E8CFD8011B968C91AE
:100BC0008F3F19F061E00E94520481E00F90DF91A5
:100BD000CF911F910F91FF90EF90DF90CF90BF903A
:100BE000AF9008953FB7F8948091F4039091F50386
:100BF000A091F603B091F70326B5A89B05C02F3F3F
:100C000019F00196A11DB11D3FBFBA2FA92F982F32
:100C10008827BC01CD01620F711D811D911D42E02D
:100C2000660F771F881F991F4A95D1F708958F92F5
:100C30009F92AF92BF92CF92DF92EF92FF924B01C1
:100C40005C010E94F2056B017C010E94F2056C19A7
:100C50007D098E099F09683E734081059105A8F3BF
:100C600021E0821A9108A108B10888EEC80E83E03D
:100C7000D81EE11CF11C81149104A104B10429F7D0
:100C8000FF90EF90DF90CF90BF90AF909F908F90AC
:100C900008952091A903260F3327331F21323105F0
:100CA000ECF42091CD03FC0190E080E0243069F069
:100CB00082E00895A091A9032191AC0147575C4FB0
:100CC000A40FB52FB11D2C930196861798F3809130
:100CD000A903680F6093A90380E0089581E0089557
:100CE00008958FEF9FEF08958FEF9FEF0895809104
:100CF000820390E09195819591090895CF93DF93B8
:100D0000CB01EA01642F0E944906CE01DF91CF9109
:100D10000895CF93DF931F92CDB7DEB7698361E06B
:100D2000CE0101960E94490681E090E00F90DF918C
:100D3000CF9108950F931F93CF93DF931F92CDB759
:100D4000DEB78C01698360E0FC01868D0E9452044D
:100D500041E050E0BE016F5F7F4FF801838D948DBD
:100D60000E949E050F90DF91CF911F910F910895E2
:100D7000CF938091030587FD13C061E00E949E041C
:100D800060E0809103050E94520461E070E080E021
:100D900090E00E94170661E0809103050E945204D2
:100DA000C0910605C83008F0C7E0C093060561E2AF
:100DB00086EE94E00E949A066C2F606186EE94E0C5
:100DC0000E949A0660E286EE94E00E949A06C09124
:100DD0000505C7FDCFE7C093050561E286EE94E007
:100DE0000E949A066C2F606886EE94E00E949A0634
:100DF00060E286EE94E00E949A0660E286EE94E05D
:100E00000E949A066CE086EE94E0CF910C949A06CC
:100E1000FF920F931F93CF93DF9390910705992330
:100E200039F0809108058F5F8917E8F580930805F0
:100E3000D0910B05D695D695D69584E5D89F80019F
:100E4000112480910C058695869586958D1780F1E5
:100E50006D2F606486EE94E00E949A06C0910905A9
:100E6000F0900A056C2F606886EE94E00E949A0666
:100E700061E0809104050E9452044F2D50E06C2FD8
:100E800070E0461B570B4F5F5F4F600F711F605044
:100E90007F4F80910105909102050E949E05DF5FC2
:100EA0000C5A1F4FCECF109208050E94B806C0CF33
:100EB00060E486EE94E00E949A0683E5809309053B
:100EC00010920A058FE280930B0510920C05DF91BA
:100ED000CF911F910F91FF9008951F93CF93DF93B0
:100EE000EC01162F60E20E949A066CE011116DE091
:100EF000CE01DF91CF911F910C949A06FC0177FDF2
:100F000055C080859185681779070CF04FC057FD53
:100F10004DC082859385481759070CF047C08689D4
:100F2000823009F444C0833009F44EC0813031F47A
:100F30008FE290E0861B970BBA01AC01842FA62F9D
:100F400093A1691708F4962F93A394A19A1708F414
:100F50009A2F94A395A1891708F4982F95A396A189
:100F6000981708F4982F96A3CA0157FD0796E3E057
:100F700095958795EA95E1F7A4E5A89FF001A99FCB
:100F8000F00D1124E60FF71FE050FF4FCA0168E093
:100F900070E00E94401A41E050E001C0440F8A9581
:100FA000EAF78081232BB9F0842B8083089583E5B1
:100FB00090E0DC01A61BB70BBD018FE290E0DC01E5
:100FC000A41BB50BAD01BACF83E590E0841B950B54
:100FD000AB01BC01B3CF40958423E7CF0895FC015A
:100FE0006370668B8481958126813781613039F009
:100FF000633029F09187808733872287089531876E
:1010000020879387828708952F923F924F925F9215
:101010006F927F928F929F92AF92BF92CF92DF9208
:10102000EF92FF920F931F93CF93DF93CDB7DEB76D
:101030006A970FB6F894DEBF0FBECDBF9A8F898F27
:101040007A8369834A01D22E18870F833701BC2C1B
:10105000DC0159962D913C915A972115310509F0E3
:1010600015C118968D919C911997681779070CF006
:10107000D7C11A968D919C91481759070CF0D0C191
:101080004C2C512CB6E0CB9E600D711D11247C8739
:101090006B87161617060CF0C3C1EA2DF0E0FA872D
:1010A000E98793E0EE0FFF1F9A95E1F7F88BEF8742
:1010B000CF01840F951F181619060CF0B1C1A98D28
:1010C000BA8D58968C91811104C0BFEABD1508F401
:1010D000D394A98DBA8DED91FC9111970284F3857B
:1010E000E02DCD010995B5E0DB9EC0011124E98119
:1010F000FA81FC83EB83312C212C9C012E533F4F32
:10110000388F2F8B4A2D50E05E8B4D8BEF89F88DF9
:10111000E20DF31D44919E828D82D12CC12C6981F8
:101120007A81620D731D7A8B698B842F90E09C8B82
:101130008B8BE98DFA8DA081B18140FF82C0F1E0F7
:10114000BF126FC0AF126DC01C96ED91FC912F8144
:101150003885A4014C0D5D1D69897A89898D9A8D28
:101160000995EB89FC89F595E7954E2F5FEFC51A38
:10117000D50A6D817E818D899E89680F791F7E8356
:101180006D8398E0C916D10481F6AFEF2A1A3A0AA6
:10119000EB81FC81E40DF51DFC83EB83F5E02F165C
:1011A000310409F0B3CF2F81388526153705B9F002
:1011B000A98DBA8DED91FC91B1E0BB1257C0AB1275
:1011C00055C069817A816B5F7F4F0088F189E02D7E
:1011D000830128E030E0A401898D9A8D0995A98DBD
:1011E000BA8DED91FC9111970688F789E02DCD011C
:1011F0006A960FB6F894DEBF0FBECDBFDF91CF91D8
:101200001F910F91FF90EF90DF90CF90BF90AF9024
:101210009F908F907F906F905F904F903F902F9016
:1012200009941E96ED91FC91EF80F88409851A854A
:1012300092014D815E816B817C81898D9A8D0995AA
:1012400090CF2F8138852615370509F48ACF31E0F4
:10125000B31207C0A31205C01C96ED91FC91930137
:1012600078CF1E96ED91FC917301E0CF6B857C8564
:10127000641975090684F785E02D73010F851889B7
:101280009201A401898D9A8D0995A9CFF90134960F
:101290009491329745915491D91AB7E0DB9E400D55
:1012A000511D1124F901259134913C8B2B8BFA01AE
:1012B00025903490FA013296749031963491398B9E
:1012C000329664903196449041E04C1518F04A15DE
:1012D00008F07FC0662D062C000C770B7C836B8397
:1012E000842D042C000C990B9E838D83A98DBA8DBF
:1012F000ED91FC9111970284F385E02DCD010995C4
:10130000512CD12CC12CEA2DF0E0FA87E9872B2D46
:1013100030E03C872B87A401440D511D47FC5A95B2
:10132000588F4F8B69817A81660D711D67FC7A95A4
:101330007E876D877989C71608F051CF2C2D30E054
:101340004D815E81420F531FA985BA854A9FC00116
:101350004B9F900D5A9F900D1124FC01E80DF91D33
:10136000F88BEF87852D612C4F89588D420F531FC5
:101370005E8B4D8B671408F050C044244394480E94
:10138000877041F4C1010196EB89FC89E20DF31DE0
:10139000D4901C01D7FE19C0A98DBA8DED91FC9196
:1013A000662D70E0B1E0BB1219C0AB1217C02D85DD
:1013B0003E85620F731F0484F585E02D2F813885EB
:1013C0004D895E89898D9A8D0995DD0C6394842DF4
:1013D000D1CF1E821D821C821B8288CF4B815C81F3
:1013E000640F751FAB85BC856A9FC0016B9F900D14
:1013F0007A9F900D112469817A81680F791F068484
:10140000F785E02DEF80F88409851A859D014F85C9
:101410005889898D9A8D0995D8CF570CC3948ACF56
:101420006A960FB6F894DEBF0FBECDBFDF91CF91A5
:101430001F910F91FF90EF90DF90CF90BF90AF90F2
:101440009F908F907F906F905F904F903F902F90E4
:1014500008958F929F92AF92CF92EF92FF920F9347
:101460001F93CF93DF93EC01262F898D9A8D0097E0
:1014700009F051C06A30D1F41D861C868D8948E080
:10148000849F900111248E859F85820F931F9F87D3
:101490008E8781E090E0DF91CF911F910F91FF90B7
:1014A000EF90CF90AF909F908F9008956D3089F31B
:1014B000CC88AD888F898823C1F08C859D8536E0E6
:1014C000C39E800D911D11244885598548175907E1
:1014D00064F44E855F851D861C8638E0A39EC0019E
:1014E0001124840F951F9F878E87EA88FB880889BF
:1014F00019894E855F856C857D85CE010E94040823
:101500002C898C859D8546E0249F800D911D11249A
:101510009D878C87BECF6A3069F41D861C86FC01CE
:101520003896E4912D898E859F85E29F800D911DCF
:101530001124ADCF6D3009F4ACCFFC013496349159
:10154000631708F4A6CF3296E491E61708F4A1CF0A
:10155000FC01329685909490462F431B342F47E030
:10156000349F800C911C1124F401329634913196F1
:10157000E4913323A9F1EE2399F1CC88F401359657
:10158000E491AD884F89442301F10E2E000CFF0B2E
:10159000E30FF11DCE9EA001CF9E500D11246C854E
:1015A0007D85460F571F68857985641775076CF42C
:1015B0004E855F851D861C86FC013896E491AE9EA3
:1015C000400D511D11245F874E87EA88FB880889EA
:1015D00019894E855F856C857D85CE010E94040842
:1015E000F4013496E4912C898C859D85E29F800DD1
:1015F000911D11248DCF6F927F928F929F92AF9207
:10160000BF92CF92DF92EF92FF920F931F93CF93EF
:10161000DF93EC016B015A0139014801E881F9813E
:101620000284F385E02D0995E881F9810288F38928
:10163000E02D87019301A501B601CE010995A50111
:10164000480D591D41505109E881F9810288F389FB
:10165000E02D9301B601CE010995E881F98100885A
:10166000F189E02D9401A501B601CE010995C60CC2
:10167000D71CB60161507109E881F9810088F189B0
:10168000E02D9401A501CE010995E881F981068834
:10169000F789E02DCE01DF91CF911F910F91FF903F
:1016A000EF90DF90CF90BF90AF909F908F907F9002
:1016B0006F9009946F927F928F929F92AF92BF9298
:1016C000CF92DF92EF92FF920F931F93CF93DF930E
:1016D0005C01EB016A01490138018701DC01ED91F0
:1016E000FC916217730719F5641675062CF0962D98
:1016F000872D3A01C92ED82E9601261937092F5F5A
:101700003F4F048CF58DE02DA301BE01C501099565
:10171000DF91CF911F910F91FF90EF90DF90CF90CD
:10172000BF90AF909F908F907F906F9008954615D7
:10173000570591F42617370724F0892D4B01C22F46
:10174000D82F9E01281939092F5F3F4F068CF78D3E
:10175000E02DA601B401DACF0284F385E02D0995CE
:10176000D501ED91FC910488F589E02D8301940168
:10177000A601BE01C5010995D501ED91FC91068830
:10178000F789E02DC501DF91CF911F910F91FF9057
:10179000EF90DF90CF90BF90AF909F908F907F9011
:1017A0006F900994EF92FF920F931F93DC011A96AA
:1017B0000D911C911B9718962D913C911997ED91C5
:1017C000FC9100A0F1A1E02D7B0150E040E070E031
:1017D00060E009951F910F91FF90EF9008954F924F
:1017E0005F926F927F928F929F92AF92BF92CF92B1
:1017F000DF92EF92FF920F931F93CF93DF936C01D1
:101800002B015A0139014801DC01ED91FC91028460
:10181000F385E02D0995E201640C751CD601ED916C
:10182000FC91C615D7055CF40088F189E02D87018D
:101830009401A501BE01C60109952196EFCF068846
:10184000F789E02DC601DF91CF911F910F91FF9095
:10185000EF90DF90CF90BF90AF909F908F907F9050
:101860006F905F904F9009948F929F92AF92BF922A
:10187000CF92DF92EF92FF920F931F93CF93DF935C
:10188000EC015B014A016901E881F9810284F38579
:10189000E02D099595012C0D3D1D21503109E88160
:1018A000F9810488F589E02D78018401A401B5014E
:1018B000CE010995E881F9810688F789E02DCE01EE
:1018C000DF91CF911F910F91FF90EF90DF90CF901C
:1018D000BF90AF909F908F9009948F929F92AF92FC
:1018E000BF92CF92DF92EF92FF920F931F93CF930D
:1018F000DF93EC015B014A0169017801E881F9811C
:101900000284F385E02D0995C80CD91C860101508D
:101910001109E881F9810488F589E02D9501A40178
:10192000B501CE010995E881F9810688F789E02D96
:10193000CE01DF91CF911F910F91FF90EF90DF903B
:10194000CF90BF90AF909F908F900994EF92FF92AD
:101950000F931F93DC01ED91FC9100A0F1A1E02D0C
:1019600009951F910F91FF90EF9008950F931F938A
:10197000DC01ED91FC91068CF78DE02D09951F910E
:101980000F9108950F931F93DC01ED91FC91048C4E
:10199000F58DE02D09951F910F910895DC01ED91D2
:1019A000FC910084F185E02D09942F923F924F9293
:1019B0005F926F927F928F929F92AF92BF92CF92DF
:1019C000DF92EF92FF920F931F93CF93DF9300D09C
:1019D00000D000D0CDB7DEB73C016A013E832D8335
:1019E000FC82EB825801A41AB50AB7FE03C0B19479
:1019F000A194B1088D809E80861A970A97FE03C035
:101A00009194819491088A149B045CF0902F812F0B
:101A10000D811E819D838E839C2D8D2D6B01692FE1
:101A2000782F0C151D055CF09D818E817E836D8362
:101A3000692F782F902F812F8601C92ED82E16015D
:101A4000201A310A2B012D813E81421A530A57FE7A
:101A500003C0519441945108710137FE03C03FEF18
:101A6000E31AF30AF594E7948D819E818617970710
:101A70005CF5A1E0B0E0BA83A983C016D1064CF1B1
:101A8000D301ED91FC910484F585E02D2B813C81FF
:101A9000A8016D817E818A149B041CF04D815E81BA
:101AA000B801C3010995E418F508F7FE0AC02D81B5
:101AB0003E8189819A81280F391F3E832D83E20C54
:101AC000F31C0F5F1F4FD9CF2FEF3FEF3A832983CE
:101AD000D4CF26960FB6F894DEBF0FBECDBFDF91F0
:101AE000CF911F910F91FF90EF90DF90CF90BF901B
:101AF000AF909F908F907F906F905F904F903F90AE
:101B00002F900895089590E080E008950E949A1B18
:101B1000FB0101900020E9F73197AF01461B570BFD
:101B2000DC01ED91FC910280F381E02D09948F920C
:101B30009F92AF92BF92EF92FF920F931F93CF931A
:101B4000DF93CDB7DEB7A1970FB6F894DEBF0FBE17
:101B5000CDBF7C01FA01CB0119A2223008F42AE0A2
:101B60008E010F5D1F4F822E912CB12CA12CBF0135
:101B7000A50194010E944E17F901CA016A300CF5C3
:101B8000605DD8016E938D01232B242B252B79F7D3
:101B900090E080E0109721F0BD01C7010E94880D00
:101BA000A1960FB6F894DEBF0FBECDBFDF91CF91E7
:101BB0001F910F91FF90EF90BF90AF909F908F90EB
:101BC0000895695CDECFCF92DF92EF92FF920F9380
:101BD0001F93CF93DF938C016B01770FEE08FF0803
:101BE000F7FE21C06DE20E943E03EC014427552719
:101BF000BA014C195D096E097F092AE0C8010E94EB
:101C0000970DC80FD91F6CE373E0C8010E94880DBF
:101C10008C0F9D1FDF91CF911F910F91FF90EF903F
:101C2000DF90CF9008952AE0B701A6010E94970D9A
:101C3000EC01E9CF4F925F926F927F928F929F92C9
:101C4000AF92BF92CF92DF92EF92FF92CF93DF934A
:101C5000EC016A017B01AB019601CB01B6010E9448
:101C6000061A6FE373E081111AC046015701E89428
:101C7000B7F82FEF3FEF4FE75FE7C501B4010E94D0
:101C8000061A811126C02FEF3FEF4FE75FE7C5012E
:101C9000B4010E94EC171816E4F463E473E0CE017B
:101CA0000E94880D7C016CE373E0CE010E94880DD8
:101CB0008E0D9F1DDF91CF91FF90EF90DF90CF9021
:101CC000BF90AF909F908F907F906F905F904F905C
:101CD00008952FEF3FEF4FE75FE4C701B6010E9481
:101CE000441918161CF467E473E0D9CF2FEF3FEFC7
:101CF0004FE75FECC701B6010E94EC1787FDF3CFF9
:101D000020E030E0A901C701B6010E94EC17B12C18
:101D1000A12C87FF09C06DE2CE010E943E035C0149
:101D2000F7FAF094F7F8F0942AE037ED43EA5BE332
:101D3000C701B6010E9480172B013C010E94631865
:101D40006B017C010E9492189B01AC01C301B2019E
:101D50000E947F172B013C012AE0B701A601CE01AA
:101D60000E94970D7C01EA0CFB1C6EE2CE010E94E2
:101D70003E03E80EF91E20E030E040E251E4C301EA
:101D8000B2010E9499192B013C010E9463184B017A
:101D9000B12CA12C2AE0B501A401CE010E94970D1F
:101DA000E80EF91EC501B4010E9492189B01AC0116
:101DB000C301B2010E947F1720E030E040E251E40D
:101DC0000E9499190E946318AB0170E060E02AE05C
:101DD000CE010E94970DE80EF91E65CF1F93CF9399
:101DE000DF9385ED8093BC008091850390918603FD
:101DF000A0918703B09188030796A11DB11D23E030
:101E0000B695A795979587952A95D1F72091BC000F
:101E100024FD03C01092CD0352C040918503509120
:101E200086036091870370918803452B462B472BCF
:101E300069F30097A105B10541F025E32A95F1F773
:101E400000000197A109B109E1CF80918403C1E0AD
:101E5000C0938303882399F1D091B8001091BA0000
:101E60008091BC008A7B8093BC0060E082E10E948C
:101E7000520460E083E10E9452041092CD03C093AB
:101E8000CF031092CE0361E082E10E94520461E030
:101E900083E10E9452048091B9008E7F8093B90043
:101EA0008091B9008D7F8093B90088E48093B80059
:101EB00085E48093BC001093BA00D093B800DF9102
:101EC000CF911F9108951F920F920FB60F92112478
:101ED0002F933F934F935F936F937F938F939F9332
:101EE000AF93BF93EF93FF938DEF93E00E94C303F3
:101EF000FF91EF91BF91AF919F918F917F916F91E2
:101F00005F914F913F912F910F900FBE0F901F90B7
:101F100018951F920F920FB60F9211242F938F9343
:101F20009F93EF93FF93E0910D04F0910E04808155
:101F3000E0911304F091140482FD1BC09081809104
:101F400016048F5F8F7320911704821741F0E09180
:101F50001604F0E0E350FC4F958F80931604FF9138
:101F6000EF919F918F912F910F900FBE0F901F9027
:101F700018958081F4CF1F920F920FB60F92112403
:101F80002F933F938F939F93AF93BF9380919A0426
:101F900090919B04A0919C04B0919D043091F30317
:101FA00023E0230F2D3758F50196A11DB11D209375
:101FB000F30380939A0490939B04A0939C04B093A2
:101FC0009D048091F4039091F503A091F603B091E4
:101FD000F7030196A11DB11D8093F4039093F503BF
:101FE000A093F603B093F703BF91AF919F918F91A8
:101FF0003F912F910F900FBE0F901F90189526E8DC
:10200000230F0296A11DB11DD2CF1F920F920FB6C2
:102010000F9211242F933F934F935F936F937F936E
:102020008F939F93AF93BF93EF93FF938091B900EA
:10203000887F803609F44AC0F0F5883209F4A5C0DB
:1020400018F5803109F499C0B8F4882309F4F5C073
:10205000883009F492C0FF91EF91BF91AF919F91A9
:102060008F917F916F915F914F913F912F910F9041
:102070000FBE0F901F901895883109F486C08032EA
:1020800051F78093CC0314C0803409F49BC040F412
:102090008033B9F38833F9F68093CC0385ECAEC076
:1020A000803509F483C0883509F494C0883499F6E2
:1020B0000E94EE0ED0CF883909F48AC038F58837EF
:1020C00029F050F4883611F0803729F683E08093A8
:1020D000CD031092CB0355C0883809F479C08039FC
:1020E00019F0803809F0B7CF8091CB03803208F027
:1020F0006FC0E091CB0381E08E0F8093CB03809182
:10210000BB00F0E0E555FC4F80833BC0803B39F0DD
:10211000D0F4803A09F477C0883A09F09CCF84E083
:102120008093CD031092AA031092A903F0E0E0E09F
:1021300009958091A90381110FC081E08093A903C3
:102140001092890309C0803C09F4A8CF883C09F4A7
:10215000A5CF883B09F07FCFE091AA0381E08E0FE5
:102160008093AA03F0E0E757FC4F80818093BB0087
:102170009091AA038091A90329C08091F2038093D2
:10218000BB0085EC8093BC0066CF9091F1038091F9
:10219000F003981758F5E091F10381E08E0F8093DA
:1021A000F103F0E0E053FC4F8081E9CFE091F103CF
:1021B00081E08E0F8093F1038091BB00F0E0E0534B
:1021C000FC4F80839091F1038091F0039817C8F23F
:1021D00085E8D8CFE091F10381E08E0F8093F10381
:1021E0008091BB00F0E0E053FC4F80838091CF03EF
:1021F00081115ECF81E08093CE0384EA8093BC009E
:102200001092CD0328CF85EC8093BC001092CD03B3
:102210008091CB03803230F4E091CB03F0E0E555C0
:10222000FC4F10826091CB0370E08BEA93E0F0E00A
:10223000E0E009951092CB030ECF1092CC0338CF7B
:10224000CF92DF92FF920F931F93CF93DF93EDEF27
:10225000F3E01382128288EE93E0A0E0B0E0848382
:102260009583A683B78382E093E09183808385EC96
:1022700090E09587848784EC90E09787868780EC50
:1022800090E0918B808B81EC90E0938B828B82EC41
:1022900090E0958B848B86EC90E0978B868B118EEB
:1022A000128E138E148EC6EED4E01B821A8224E5A1
:1022B00030E03D832C8380E390E09F838E833987D9
:1022C00028879B878A871E8A1D861C861F861E86F6
:1022D000FF24F394FD8AFC8A8FEF9FEF9B8B8A8B00
:1022E000998B888BFF8A188E1A8E198E84E193E061
:1022F000998388838CE190E00E94751A8C0184E0B8
:10230000D8011B968C931B9787E01C968C931C9787
:102310008FEF1E968C931E9786E01D968C931D97CB
:10232000E2E0F6E0E491F0E0EE0FFF1FEC50FA4F30
:1023300085919491F801968B858BE4EEF5E0E4911C
:102340005A96EC935A97E4E0F6E0E491F0E0EE0F51
:10235000FF1FEC50FA4F85919491F801908B87877D
:10236000E6EEF5E0E4915796EC935797E5E0F6E05A
:10237000E491F0E0EE0FFF1FEC50FA4F859194913D
:10238000F801928B818BE7EEF5E0E4915996EC939E
:1023900080E099E0ADE3B0E0F80184839583A68303
:1023A000B783CC24C394D12CD186C0861286138ED9
:1023B00082E090E00E94751A20E5DC012C931196D2
:1023C0001C92F80193838283118210821C8F0B8FE1
:1023D00085E08E8F83E08D8FEAEAF4E082EA94E074
:1023E000978F868F86EA94E0958F848F8EE994E0AC
:1023F00091A380A312AE12AA13AA14AA15AA80E070
:1024000090E0AFE7B3E486AB97ABA0AFB1AF84E6A3
:1024100090E0A0E0B0E086A797A7A0ABB1AB118E8B
:10242000108ED38EC28EF3AE80E090E0A0E0B0E4D8
:1024300080839183A283B38340E050E060EA70E43C
:10244000448355836683778340E050E060E87FE310
:10245000408751876287738784879587A687B78768
:1024600080E090E0A0E0BFE3808B918BA28BB38BE8
:1024700080E090E0A0E2B1E4848B958BA68BB78BD3
:102480002FB7F89480919A0490919B04A0919C049A
:10249000B0919D042FBF46A557A560A971A9841BC3
:1024A000950BA60BB70B82A393A3A4A3B5A3DF91AF
:1024B000CF911F910F91FF90DF90CF900895CF9310
:1024C000DF93CDB7DEB762970FB6F894DEBF0FBECD
:1024D000CDBF789484B5826084BD84B5816084BDAD
:1024E00085B5826085BD85B5816085BD80916E00B2
:1024F000816080936E0010928100809181008260E3
:10250000809381008091810081608093810080911F
:1025100080008160809380008091B100846080930E
:10252000B1008091B00081608093B00080917A000A
:10253000846080937A0080917A00826080937A0030
:1025400080917A00816080937A0080917A0080681F
:1025500080937A001092C100E0910D04F0910E0476
:1025600082E08083E0910904F0910A041082E091F6
:102570000B04F0910C048FEC808310921504E09111
:102580001104F091120486E08083E0910F04F09131
:102590001004808180618083E0910F04F091100429
:1025A000808188608083E0910F04F0911004808125
:1025B00080688083E0910F04F091100480818F7D0A
:1025C000808361E082E00E949E0461E088E00E94D6
:1025D0009E048EE00E94CF0420E530E0DC010E94E2
:1025E000541A2FEF33E040E050E00E942F17CA0149
:1025F000B9010E94941860939E0470939F04809385
:10260000A0049093A1048FE00E94CF04BC01990F15
:10261000880B990B0E94941820E030E040EA50E4C7
:102620000E94991920E030EC4FE754E40E94F11722
:102630006B017C0120E030E44CE156E40E949919E2
:102640004B015C01A701960160E070E080EA90E434
:102650000E947F179B01AC01C501B4010E94F117D4
:102660006093F9037093FA038093FB039093FC0348
:1026700021EE31EF4BE156E40E94F1170E9451190F
:1026800024E63FEB47E959E30E9499192FE03FEC1C
:102690004BE55BE30E9480179B01AC0160E070E0BA
:1026A00080E89FE30E94F11723E333E948E853E40D
:1026B0000E947F176093A6047093A7048093A804D8
:1026C0009093A9048091E404811149C0E091C80469
:1026D000F091C904C080D180E280F380C092D00420
:1026E000D092D104E092D204F092D304E091C604D7
:1026F000F091C70480819181A281B3818093D40439
:102700009093D504A093D604B093D7048090E004AE
:102710009090E104A090E204B090E304A50194013C
:10272000C701B6010E94441918164CF48092D004D7
:102730009092D104A092D204B092D30410C08090A1
:10274000DC049090DD04A090DE04B090DF04A501CD
:102750009401C701B6010E94EC1787FDE7CF81E025
:102760008093E40420910105309102053A83298386
:10277000D9011B968C918F3F49F061E00E949E0425
:1027800061E0E981FA8183850E945204A981BA81BE
:102790008D919C91892B09F40FC31FB7F8948091F8
:1027A000F803811127C0E8E0F6E08491EAEEF5E055
:1027B0009491E82FF0E0EE0FFF1FEA52FA4FA59137
:1027C000B491EC91E92321F461E08AE00E94520483
:1027D00061E08AE00E949E048CB580618CBD8CB55E
:1027E00080648CBD61E08DE00E949E0461E08BE01E
:1027F0000E949E048091F8038F5F8093F8031FBFAF
:1028000081E0E981FA81838F61E0809104050E9473
:102810009E048091030587FD03C061E00E949E0431
:1028200084E08093060588E28093050510920705F1
:10283000109208050E94B8061092090580910A05B9
:10284000833508F483E580930A0510920B05809187
:102850000C058F3208F48FE280930C050E94080764
:102860008EE00E94CF0420E530E0DC010E94541A83
:102870002FEF33E040E050E00E942F17CA01B9016A
:102880000E949418AB01BC0140939E0450939F0496
:102890006093A0047093A1048DEF93E00E941A0E40
:1028A00064EF71E080E090E00E94170680E10E94F2
:1028B000CF0424E630E0DC010E94541A2FEF33E00D
:1028C00040E050E00E942F172D873E874F87588B9E
:1028D0006BE473E08DEF93E00E94880D6D857E853B
:1028E0008DEF93E00E94E30D64EF71E080E090E0F3
:1028F0000E9417068FE00E94CF04BC01990F880B3D
:10290000990B0E94941820E030E040EA50E40E94C5
:10291000991920E030EC4FE754E40E94F1176B0165
:102920007C0120E030E44CE156E40E9499194B010F
:102930005C01A701960160E070E080EA90E40E94EB
:102940007F179B01AC01C501B4010E94F1176B0117
:102950007C01C092F903D092FA03E092FB03F0925B
:10296000FC0364EF71E080E090E00E94170621EE26
:1029700031EF4BE156E4C701B6010E94F1170E9406
:10298000511924E63FEB47E959E30E9499192FE0DA
:102990003FEC4BE55BE30E9480179B01AC0160E0DC
:1029A00070E080E89FE30E94F11723E333E948E8F1
:1029B00053E40E947F17AB01BC014093A6045093DF
:1029C000A7046093A8047093A9048DEF93E00E947C
:1029D0001A0E64EF71E080E090E00E94170680918B
:1029E000E404882309F435C18FB7F89420919A0440
:1029F00030919B0440919C0450919D0429873A8713
:102A00004B875C878FBF8091CC049091CD04A091BF
:102A1000CE04B091CF0449855A856B857C85481BCF
:102A2000590B6A0B7B0B8091D8049091D904A0912B
:102A3000DA04B091DB04481759076A077B0708F4EA
:102A400008C1E091C604F091C704408051806280C3
:102A50007380E091CA04F091CB04A30192016081DC
:102A60007181828193810E947F176B017C0120918B
:102A7000D4043091D5044091D6045091D704C301B9
:102A8000B2010E947F1769837A838B839C83209194
:102A9000BA043091BB044091BC045091BD04C701FD
:102AA000B6010E9499192091D0043091D10440912F
:102AB000D2045091D3040E9480174B015C01809294
:102AC000D0049092D104A092D204B092D30430905A
:102AD000E50431101CC02091B6043091B704409138
:102AE000B8045091B90469817A818B819C810E94DC
:102AF00099199B01AC01C501B4010E947F17609335
:102B0000D0047093D1048093D2049093D304809125
:102B1000D0049091D104A091D204B091D3048D83BC
:102B20009E83AF83B8871091E0040091E1049091F7
:102B3000E2049A8BA091E304A98B212F302F492F17
:102B40005A2F6D817E818F8198850E9444191816B5
:102B50000CF063C1812F902FAA89B9898093D0048A
:102B60009093D104A093D204B093D304332009F4FA
:102B70006FC12091B6043091B7044091B8045091D0
:102B8000B904C701B6010E9499196B017C0120911B
:102B9000BE043091BF044091C0045091C1046981CA
:102BA0007A818B819C810E9499199B01AC01609173
:102BB000D0047091D1048091D2049091D3040E94EA
:102BC0007F17A70196010E9480176B017C019B0172
:102BD000AC01612F702F8A8999890E94EC1787FDBB
:102BE00018C01091DC040091DD04B091DE04BA8BB2
:102BF000E091DF04E98B212F302F4B2F5E2FB601A0
:102C0000C7010E94EC1787FD04C01C2D0D2DEA8A18
:102C1000F98AE091C804F091C904812F902FAA8904
:102C2000B98980839183A283B3834092D404509264
:102C3000D5046092D6047092D70429853A854B85D5
:102C40005C852093CC043093CD044093CE04509304
:102C5000CF0465E573E08DEF93E00E94880D40910D
:102C6000A2045091A3046091A4047091A5048DEF77
:102C700093E00E941A0E6CE271E080E090E00E9406
:102C80001706A0E0B1E0E8EFF1E01D923197E9F717
:102C90001092090580910A05833508F483E5809335
:102CA0000A0510920B0580910C058F3208F48FE213
:102CB00080930C051092F3041092F2041092F50424
:102CC0001092F4046BE573E086EE94E00E94880DA8
:102CD00040919E0450919F046091A0047091A104C2
:102CE00086EE94E00E941A0E63E673E086EE94E0AE
:102CF0000E94880D4091A2045091A3046091A40405
:102D00007091A50486EE94E00E941A0E6DE673E0C1
:102D100086EE94E00E94880D4091A6045091A7048D
:102D20006091A8047091A90486EE94E00E941A0EA6
:102D300068E773E086EE94E00E94880D6D857E85DD
:102D400086EE94E00E94E30D0E94080720E030E048
:102D500040EF51E46091A6047091A7048091A8040B
:102D60009091A9040E94EC1718160CF475C061E04C
:102D700082E00E94520420E030E040EA52E4609198
:102D8000A6047091A7048091A8049091A9040E94C0
:102D9000441961E087FD60E088E00E94520420E071
:102DA00030E0232B09F45CCD0E94AF03882309F4A3
:102DB00057CD0E94000054CD61E0E981FA818485FD
:102DC0000E949E04A981BA811A968C911A978B7FD2
:102DD000F9F460E01C968C910E945204A981BA819A
:102DE0001D968C918F3F49F061E00E949E0461E046
:102DF000E981FA8185850E945204A981BA811E96D3
:102E00008C918F3F09F4FCCC60E00E949E04F8CCCA
:102E100061E0E981FA818485DFCF8090DC049090C5
:102E2000DD04A090DE04B090DF04A50194016D8163
:102E30007E818F8198850E94EC1787FF97CE8092C4
:102E4000D0049092D104A092D204B092D3048ECE3A
:102E5000C12CD12C76019BCE60E087E08ACF052E75
:102E600097FB1EF400940E94461757FD07D00E945E
:102E70004E1707FC03D04EF40C944617509540951E
:102E8000309521953F4F4F4F5F4F08959095809516
:102E9000709561957F4F8F4F9F4F0895A1E21A2E35
:102EA000AA1BBB1BFD010DC0AA1FBB1FEE1FFF1FEE
:102EB000A217B307E407F50720F0A21BB30BE40B3E
:102EC000F50B661F771F881F991F1A9469F7609585
:102ED0007095809590959B01AC01BD01CF0108953F
:102EE000A29FB001B39FC001A39F700D811D11244B
:102EF000911DB29F700D811D1124911D0895505890
:102F0000BB27AA270E9497170C940A190E94FC1845
:102F100038F00E94031920F039F49F3F19F426F489
:102F20000C94F9180EF4E095E7FB0C94F318E92FD4
:102F30000E941B1958F3BA17620773078407950795
:102F400020F079F4A6F50C943D190EF4E0950B2EC3
:102F5000BA2FA02D0B01B90190010C01CA01A001EB
:102F60001124FF27591B99F0593F50F4503E68F146
:102F70001A16F040A22F232F342F4427585FF3CF87
:102F8000469537952795A795F0405395C9F77EF458
:102F90001F16BA0B620B730B840BBAF09150A1F0A1
:102FA000FF0FBB1F661F771F881FC2F70EC0BA0F27
:102FB000621F731F841F48F4879577956795B795AF
:102FC000F7959E3F08F0B0CF9395880F08F09927AA
:102FD000EE0F9795879508950E94CF1808F481E029
:102FE00008950E9405180C940A190E94031958F0BC
:102FF0000E94FC1840F029F45F3F29F00C94F3186C
:1030000051110C943E190C94F9180E941B1968F385
:103010009923B1F3552391F3951B550BBB27AA2791
:1030200062177307840738F09F5F5F4F220F331FCB
:10303000441FAA1FA9F335D00E2E3AF0E0E832D093
:1030400091505040E695001CCAF72BD0FE2F29D096
:10305000660F771F881FBB1F261737074807AB0768
:10306000B0E809F0BB0B802DBF01FF2793585F4FDD
:103070003AF09E3F510578F00C94F3180C943E19E9
:103080005F3FE4F3983ED4F3869577956795B795BF
:10309000F7959F5FC9F7880F911D9695879597F9CA
:1030A0000895E1E0660F771F881FBB1F6217730743
:1030B0008407BA0720F0621B730B840BBA0BEE1F58
:1030C00088F7E09508950E94231988F09F5798F09B
:1030D000B92F9927B751B0F0E1F0660F771F881F1D
:1030E000991F1AF0BA95C9F714C0B13091F00E9437
:1030F0003D19B1E008950C943D19672F782F88276A
:10310000B85F39F0B93FCCF3869577956795B3955D
:10311000D9F73EF490958095709561957F4F8F4FCC
:103120009F4F0895E89409C097FB3EF490958095D1
:10313000709561957F4F8F4F9F4F9923A9F0F92F7D
:1031400096E9BB279395F695879577956795B795FB
:10315000F111F8CFFAF4BB0F11F460FF1BC06F5FE1
:103160007F4F8F4F9F4F16C0882311F096E911C0F3
:10317000772321F09EE8872F762F05C0662371F014
:1031800096E8862F70E060E02AF09A95660F771F28
:10319000881FDAF7880F9695879597F90895990F04
:1031A0000008550FAA0BE0E8FEEF16161706E80711
:1031B000F907C0F012161306E407F50798F0621B32
:1031C000730B840B950B39F40A2661F0232B242B07
:1031D000252B21F408950A2609F4A140A6958FEF26
:1031E000811D811D089597F99F6780E870E060E078
:1031F00008959FEF80EC089500240A941616170690
:1032000018060906089500240A94121613061406D7
:1032100005060895092E0394000C11F4882352F03A
:10322000BB0F40F4BF2B11F460FF04C06F5F7F4FF2
:103230008F4F9F4F089557FD9058440F551F59F0D9
:103240005F3F71F04795880F97FB991F61F09F3F93
:1032500079F087950895121613061406551FF2CFBC
:103260004695F1DF08C0161617061806991FF1CF0C
:1032700086957105610508940895E894BB27662733
:103280007727CB0197F908950E94CF1808F48FEFA4
:10329000089516F00C940B1A0C94F91868940C9479
:1032A000F3180E942319A8F39923C1F3AEF3DF9317
:1032B000CF931F930F93FF92C92FDD2788232AF006
:1032C0002197660F771F881FDAF720E030E040E88B
:1032D0005FEB9FE3883920F0803E38F021968F77AE
:1032E0000E948017E8E6F0E004C00E948017E5E93C
:1032F000F0E00E94191A8B01BE01EC01FB2E6F5702
:1033000071097595771F880B990B0E94941828E115
:1033100032E741E35FE30E94AC19AF2D9801AE01A3
:10332000FF900F911F91CF91DF910E9497170C94FE
:103330000A190E94AC190C940A190E94FC1838F062
:103340000E94031920F0952311F00C94F3180C94AB
:10335000F91811240C943E190E941B1970F3959FC3
:10336000C1F3950F50E0551F629FF001729FBB277C
:10337000F00DB11D639FAA27F00DB11DAA1F649F18
:103380006627B00DA11D661F829F2227B00DA11DCB
:10339000621F739FB00DA11D621F839FA00D611D51
:1033A000221F749F3327A00D611D231F849F600D72
:1033B000211D822F762F6A2F11249F5750409AF09B
:1033C000F1F088234AF0EE0FFF1FBB1F661F771F27
:1033D000881F91505040A9F79E3F510580F00C94F2
:1033E000F3180C943E195F3FE4F3983ED4F38695AE
:1033F00077956795B795F795E7959F5FC1F7FE2B92
:10340000880F911D9695879597F908950E94CF187A
:10341000880B990B08959F3F31F0915020F48795C8
:1034200077956795B795880F911D9695879597F92C
:103430000895DF93CF931F930F93FF92EF92DF9244
:103440007B018C01689406C0DA2EEF010E94AC1952
:10345000FE01E894A5912591359145915591A6F3EA
:10346000EF010E949717FE019701A801DA9469F70E
:10347000DF90EF90FF900F911F91CF91DF91089512
:1034800097FB072E16F4009407D077FD09D00E9411
:103490005B1A07FC05D03EF4909581959F4F0895E7
:1034A000709561957F4F08950E947017B7FF08953A
:1034B000821B930B0895AA1BBB1B51E107C0AA1FD7
:1034C000BB1FA617B70710F0A61BB70B881F991FC5
:1034D0005A95A9F780959095BC01CD010895EE0FFE
:1034E000FF1F0590F491E02D09940F931F93CF9344
:1034F000DF938230910510F482E090E0E0910F05B7
:10350000F091100530E020E0B0E0A0E0309799F4B1
:103510002115310509F44AC0281B390B2430310527
:10352000D8F58A819B816115710589F1FB0193832F
:103530008283FE0111C040815181028113814817AD
:103540005907E0F04817590799F4109761F012965F
:103550000C93129713961C933296CF01DF91CF9163
:103560001F910F91089500930F0510931005F4CF4C
:103570002115310551F04217530738F0A901DB013D
:103580009A01BD01DF01F801C1CFEF01F9CF90939E
:10359000100580930F05CDCFFE01E20FF31F81933D
:1035A00091932250310939832883D7CF20910D057B
:1035B00030910E05232B41F42091FA023091FB0249
:1035C00030930E0520930D052091F8023091F902F9
:1035D0002115310541F42DB73EB74091FC025091C1
:1035E000FD02241B350BE0910D05F0910E05E2174D
:1035F000F307A0F42E1B3F0B2817390778F0AC0116
:103600004E5F5F4F2417350748F04E0F5F1F5093F2
:103610000E0540930D05819391939FCFF0E0E0E07C
:103620009CCFCF93DF930097E9F0FC013297138290
:103630001282A0910F05B0911005ED0130E020E05D
:103640001097A1F420813181820F931F20910D05E5
:1036500030910E052817390709F061C0F0930E0567
:10366000E0930D05DF91CF910895EA01CE17DF07B2
:10367000E8F54A815B819E0141155105B1F7E901E9
:10368000FB83EA8349915991C40FD51FEC17FD07BD
:1036900061F4808191810296840F951FE9019983DD
:1036A0008883828193819B838A83F0E0E0E0129695
:1036B0008D919C9113970097B9F52D913C9111979D
:1036C000CD010296820F931F20910D0530910E05BA
:1036D0002817390739F6309751F5109210051092D6
:1036E0000F05B0930E05A0930D05BCCFD383C28305
:1036F00040815181840F951FC817D90761F44E5F2F
:103700005F4F88819981480F591F518340838A8177
:103710009B81938382832115310509F0B0CFF0930B
:103720001005E0930F059ECFFD01DC01C0CF138291
:103730001282D7CF81E090E0F8940C949F1BF8940C
:02374000FFCFB9
:103742000000000000000000000000000000000077
:103752000000000000000000000000000000000067
:10376200000000000000C0E0F0F8FCFCFEFFFCE0FE
:103772000000000000000000000000000000000047
:103782000000000000000000000000000000000037
:103792000000000000000000000000000000000027
:1037A2000000000000F8F8F8F8F8F8F8F8F8F8F86F
:1037B200F8F0F0E0E0C080C0FCFFFFFFFF7F3F7F3A
:1037C200FFFFFFFFFF0000000000000000000000FC
:1037D20000000000000000000000000000000000E7
:1037E20000000000000000000000000000000000D7
:1037F200000000000000000000000F1F3F7FFFFFDD
:10380200FFFFFFFFFFFFE7C7C7878F9F9FFFFFFFF6
:10381200C1C0E0FCFFFFFFFFFFFCFCFCFCFEFEFE64
:10382200FCFCF8F8F0E0C0C000000000000000005E
:103832000000000000000000000000000000000086
:103842000000000000000000000000000000000076
:103852000080C0E0F1FBFFFFFFFFFF7F1F0F0F871C
:10386200E7FFFFFF1F1F3FF9F8F8F8F8F8F8FDFF30
:10387200FFFFFFFFFFFFFFFF7F3F0F070100000079
:103882000000000000000000000000000000000036
:103892000000000000000000000000000000000026
:1038A200000000F0FEFFFFFFFFFFFFFFFFFFFFFE34
:1038B2007E3F3F0F1FFFFFFFFCF0E0F1FFFFFFFF26
:1038C200FFFCF00101010101010101000000000003
:1038D20000000000000000000000000000000000E6
:1038E20000000000000000000000000000000000D6
:1038F20000000000000000030303030303030301AD
:1039020001010100000000000000030F1F3F7F7F44
:10391200FFFFFFFF7F7F1F03000000000000000089
:103922000000000000000000000000000000000095
:1039320000000000000000000000110580000000EF
:103942000000E503450372033204A30381039503D8
:1039520000000000290A4503830D820D7E077006D0
:10396200CE0CA60CC20CB60CD50C7006EF076D0778
:103972006D0C340CEF0BD20B5A0BFB0A0D0A006EC6
:10398200616E00696E66006F76660068756D6564CB
:1039920061643A20006F75743A200054206F702ED3
:1039A2003A2000436F6E74726F6C3A200054207399
:1039B200656E7365643A200048756D656461643AAA
:0239C2002000E3
:00000001FF
