:100000000C948A000C94B2000C94B2000C94B200D0
:100010000C94B2000C94B2000C94B2000C94B20098
:100020000C94B2000C94B2000C94B2000C94B20088
:100030000C94B2000C94B2000C94B2000C94B20078
:100040000C9408040C94B2000C94D6030C94B003E6
:100050000C94B2000C94B2000C94B2000C94B20058
:100060000C94B2000C94B20008000000BE92244927
:10007000123EABAAAA2ABECDCCCC4C3E00000080DA
:10008000BEABAAAAAA3E00000000BF000000803F4D
:100090000000000000084178D3BB4387D1133D190D
:1000A0000E3CC3BD4282AD2B3E68EC8276BED98F3A
:1000B000E1A93E4C80EFFFBE01C4FF7F3F0000007E
:1000C0000000000000080002010000030407000017
:1000D00000000000000000000000250028002B00A8
:1000E00000000000240027002A0004040404040483
:1000F00004040202020202020303030303030102D7
:1001000004081020408001020408102001020408A5
:100110001020520411241FBECFEFD8E0DEBFCDBFA8
:1001200011E0A0E0B1E0EEE7F7E102C005900D922A
:10013000A233B107D9F722E0A2E3B1E001C01D92DA
:10014000A432B207E1F710E0CAE8D0E004C021977A
:10015000FE010E94B70BC938D107C9F70E94EC0411
:100160000C94BD0B0C94000090E0FC01E250FF4F9A
:10017000249186519F4FFC018491882399F090E04F
:10018000880F991FFC01E052FF4FA591B491FC012B
:10019000EA52FF4F859194918FB7F894EC91E22B3E
:1001A000EC938FBF0895AF92BF92CF92DF92EF9200
:1001B000FF920F931F93CF93DF936C017B018B0111
:1001C000040F151FEB015E01AE18BF08C017D10761
:1001D00059F06991D601ED91FC910190F081E02DEB
:1001E000C6010995892B79F7C501DF91CF911F9140
:1001F0000F91FF90EF90DF90CF90BF90AF90089558
:10020000FC01538D448D252F30E0842F90E0821B1C
:10021000930B541710F0CF96089501970895FC01A1
:10022000918D828D981761F0A28DAE0FBF2FB11DF9
:100230005D968C91928D9F5F9F73928F90E0089551
:100240008FEF9FEF0895FC01918D828D981731F00B
:10025000828DE80FF11D858D90E008958FEF9FEF5F
:100260000895FC01918D228D892F90E0805C9F4F35
:10027000821B91098F73992708958BE391E00E9467
:10028000310121E0892B09F420E0822F089580E0DC
:1002900090E0892B29F00E943D0181110C9400000F
:1002A0000895FC01A48DA80FB92FB11DA35ABF4F0B
:1002B0002C91848D90E001968F739927848FA68965
:1002C000B7892C93A089B1898C91837080648C93B9
:1002D000938D848D981306C00288F389E02D808168
:1002E0008F7D80830895EF92FF920F931F93CF939A
:1002F000DF93EC0181E0888F9B8D8C8D98131AC061
:10030000E889F989808185FF15C09FB7F894EE8947
:10031000FF896083E889F9898081837080648083A4
:100320009FBF81E090E0DF91CF911F910F91FF90EF
:10033000EF900895F62E0B8D10E00F5F1F4F0F7397
:100340001127E02E8C8D8E110CC00FB607FCFACF52
:10035000E889F989808185FFF5CFCE010E9451019E
:10036000F1CFEB8DEC0FFD2FF11DE35AFF4FF08223
:100370009FB7F8940B8FEA89FB8980818062CFCF89
:10038000CF93DF93EC01888D8823B9F0AA89BB89CC
:10039000E889F9898C9185FD03C0808186FD0DC0B7
:1003A0000FB607FCF7CF8C9185FFF2CF808185FFD8
:1003B000EDCFCE010E945101E9CFDF91CF91089599
:1003C00090E0FC01EE53FF4F2491FC01E250FF4FFF
:1003D0003491FC01E651FF4FE491EE23C9F0222352
:1003E00039F0233001F1A8F4213019F1223029F13C
:1003F000F0E0EE0FFF1FEA52FF4FA591B4918FB7C7
:10040000F894EC91611126C030953E233C938FBF48
:1004100008952730A9F02830C9F0243049F7809199
:1004200080008F7D03C0809180008F778093800053
:10043000DFCF84B58F7784BDDBCF84B58F7DFBCFD5
:100440008091B0008F778093B000D2CF8091B000C0
:100450008F7DF9CF3E2BDACF8E50806480937C0065
:1004600080917A00806480937A0080917A0086FD82
:10047000FCCF809178009091790008953FB7F8946F
:100480008091330190913401A0913501B0913601F2
:1004900026B5A89B05C02F3F19F00196A11DB11DDF
:1004A0003FBFBA2FA92F982F8827BC01CD01620F1B
:1004B000711D811D911D42E0660F771F881F991FD6
:1004C0004A95D1F708958F929F92AF92BF92CF92A3
:1004D000DF92EF92FF924B015C010E943E026B01A2
:1004E0007C010E943E026C197D098E099F09683EBD
:1004F000734081059105A8F321E0821A9108A108B3
:10050000B10888EEC80E83E0D81EE11CF11C8114EE
:100510009104A104B10429F7FF90EF90DF90CF90F0
:10052000BF90AF909F908F900895FC0101900020A4
:10053000E9F73197AF01481B590BBC018BE391E000
:100540000C94D3008F929F92AF92BF920F931F9300
:10055000CF93DF93CDB7DEB7A1970FB6F894DEBF88
:100560000FBECDBF19A2423008F44AE08E010F5DE4
:100570001F4F842E912CB12CA12CA50194010E9417
:10058000BE08E62FB901CA01EA30F4F4E05DD801F3
:10059000EE938D01232B242B252B79F790E080E01F
:1005A000109719F0CD010E949502A1960FB6F8940C
:1005B000DEBF0FBECDBFDF91CF911F910F91BF90D6
:1005C000AF909F908F900895E95CE1CF4F925F923A
:1005D0006F927F928F929F92AF92BF92CF92DF9253
:1005E000EF92FF926B017C01AC019B010E94760BA4
:1005F0008823C1F082E191E00E9495027C018EE1A6
:1006000091E00E9495028E0D9F1DFF90EF90DF906C
:10061000CF90BF90AF909F908F907F906F905F90A2
:100620004F90089546015701E894B7F82FEF3FEF38
:100630004FE75FE7C501B4010E94760B81110DC041
:100640002FEF3FEF4FE75FE7C501B4010E945C0960
:1006500018161CF486E191E0CFCF2FEF3FEF4FE764
:100660005FE4C701B6010E94B40A18161CF48AE1BF
:1006700091E0C2CF2FEF3FEF4FE75FECC701B6012C
:100680000E945C0987FDF3CF20E030E0A901C7019B
:10069000B6010E945C09B12CA12C87FF0AC06DE253
:1006A0008BE391E00E9473015C01F7FAF094F7F894
:1006B000F0942AE037ED43EA5BE3C701B6010E94FC
:1006C000F0082B013C010E94D3096B017C010E94C0
:1006D000020A9B01AC01C301B2010E94EF082B0189
:1006E0003C014AE0C701B6010E94A2027C01EA0C6B
:1006F000FB1C6EE28BE391E00E947301E80EF91E91
:1007000020E030E040E251E4C301B2010E94090B55
:100710002B013C010E94D3094B01B12CA12C4AE0D2
:10072000C501B4010E94A202E80EF91EC501B40180
:100730000E94020A9B01AC01C301B2010E94EF08B2
:1007400020E030E040E251E40E94090B0E94D3090E
:1007500090E080E04AE00E94A202E80EF91E4FCF2E
:100760001F920F920FB60F9211242F933F934F9326
:100770005F936F937F938F939F93AF93BF93EF9309
:10078000FF938BE391E00E945101FF91EF91BF91A4
:10079000AF919F918F917F916F915F914F913F9119
:1007A0002F910F900FBE0F901F9018951F920F92D0
:1007B0000FB60F9211242F938F939F93EF93FF9374
:1007C000E0914B01F0914C018081E0915101F09159
:1007D000520182FD1BC09081809154018F5F8F7305
:1007E00020915501821741F0E0915401F0E0E55C61
:1007F000FE4F958F80935401FF91EF919F918F91C0
:100800002F910F900FBE0F901F9018958081F4CFFD
:100810001F920F920FB60F9211242F933F938F9335
:100820009F93AF93BF938091D8019091D901A091EC
:10083000DA01B091DB013091320123E0230F2D3733
:1008400058F50196A11DB11D209332018093D80166
:100850009093D901A093DA01B093DB018091330129
:1008600090913401A0913501B09136010196A11DFE
:10087000B11D8093330190933401A0933501B0935F
:100880003601BF91AF919F918F913F912F910F9022
:100890000FBE0F901F90189526E8230F0296A11DFA
:1008A000B11DD2CFEBE3F1E01382128288EE93E028
:1008B000A0E0B0E084839583A683B78384E091E0D1
:1008C0009183808385EC90E09587848784EC90E029
:1008D0009787868780EC90E0918B808B81EC90E00D
:1008E000938B828B82EC90E0958B848B86EC90E0EE
:1008F000978B868B118E128E138E148EE8EEF1E09C
:1009000080EE91E0978F868F84EE91E0958F848FB3
:100910008CED91E091A380A312AE12AA13AA14AA9F
:1009200015AA80E090E0AFE7B3E486AB97ABA0AF49
:10093000B1AF84E690E0A0E0B0E086A797A7A0ABB7
:10094000B1AB118E108E81E090E0938F828F83AFD8
:1009500080E090E0A0E0B0E480839183A283B38341
:1009600040E050E060EA70E4448355836683778317
:1009700040E050E060E87FE34087518762877387FB
:1009800084879587A687B78780E090E0A0E0BFE3E3
:10099000808B918BA28BB38B80E090E0A0E2B1E4DE
:1009A000848B958BA68BB78B2FB7F8948091D80149
:1009B0009091D901A091DA01B091DB012FBF46A53A
:1009C00057A560A971A9841B950BA60BB70B82A331
:1009D00093A3A4A3B5A30895CF93DF93CDB7DEB7B8
:1009E0002E970FB6F894DEBF0FBECDBF789484B5B6
:1009F000826084BD84B5816084BD85B5826085BD1B
:100A000085B5816085BD80916E00816080936E00A8
:100A1000109281008091810082608093810080919A
:100A2000810081608093810080918000816080934B
:100A300080008091B10084608093B1008091B0000B
:100A400081608093B00080917A00846080937A0006
:100A500080917A00826080937A0080917A00816030
:100A600080937A0080917A00806880937A00109257
:100A7000C100E0914B01F0914C0182E08083E09154
:100A80004701F09148011082E0914901F0914A013B
:100A90008FEC808310925301E0914F01F09150014F
:100AA00086E08083E0914D01F0914E01808180616C
:100AB0008083E0914D01F0914E01808188608083B8
:100AC000E0914D01F0914E01808180688083E0913A
:100AD0004D01F0914E0180818F7D808387E00E94DF
:100AE000B40088E00E94B4008EE00E942C0220E551
:100AF00030E0DC010E94B00B2FEF33E040E050E02B
:100B00000E949F08CA01B9010E94040A6093DC0197
:100B10007093DD018093DE019093DF018FE00E94EE
:100B20002C02BC01990F880B990B0E94040A20E04B
:100B300030E040EA50E40E94090B20E030EC4FE73F
:100B400054E40E9461096B017C0120E030E44CE137
:100B500056E40E94090B4B015C01A701960160E07D
:100B600070E080EA90E40E94EF089B01AC01C501AF
:100B7000B4010E946109609337017093380180933A
:100B8000390190933A0121EE31EF4BE156E40E9496
:100B900061090E94C10A24E63FEB47E959E30E943C
:100BA000090B2FE03FEC4BE55BE30E94F0089B0153
:100BB000AC0160E070E080E89FE30E94610923E3FC
:100BC00033E948E853E40E94EF086093E40170932E
:100BD000E5018093E6019093E70180912202811163
:100BE00049C0E0910602F0910702C080D180E28006
:100BF000F380C0920E02D0920F02E0921002F092A7
:100C00001102E0910402F091050280819181A2819C
:100C1000B3818093120290931302A0931402B093B5
:100C2000150280901E0290901F02A0902002B090AA
:100C30002102A5019401C701B6010E94B40A181649
:100C40004CF480920E0290920F02A0921002B09289
:100C5000110210C080901A0290901B02A0901C02FA
:100C6000B0901D02A5019401C701B6010E945C0964
:100C700087FDE7CF81E0809322028EE00E942C0264
:100C800020E530E0DC010E94B00B2FEF33E040E0C4
:100C900050E00E949F08CA01B9010E94040A6093B3
:100CA000DC017093DD018093DE019093DF010E94EF
:100CB000E60264EF71E080E090E00E94630280E170
:100CC0000E942C0224E630E0DC010E94B00B2FEFE2
:100CD00033E040E050E00E949F0869017A0181E220
:100CE00091E00E9495024AE0C701B601F7FE0DC0EF
:100CF0006DE28BE391E00E94730166277727CB01B9
:100D00006C197D098E099F094AE00E94A2028EE1BA
:100D100091E00E94950264EF71E080E090E00E9413
:100D200063028FE00E942C02BC01990F880B990B83
:100D30000E94040A20E030E040EA50E40E94090BDF
:100D400020E030EC4FE754E40E9461096B017C0124
:100D500020E030E44CE156E40E94090B4B015C01B9
:100D6000A701960160E070E080EA90E40E94EF083D
:100D70009B01AC01C501B4010E9461096B017C01BA
:100D8000C0923701D0923801E0923901F0923A01D5
:100D900064EF71E080E090E00E94630221EE31EFA9
:100DA0004BE156E4C701B6010E9461090E94C10AE5
:100DB00024E63FEB47E959E30E94090B2FE03FECA3
:100DC0004BE55BE30E94F0089B01AC0160E070E042
:100DD00080E89FE30E94610923E333E948E853E494
:100DE0000E94EF086093E4017093E5018093E601AF
:100DF0009093E7010E94E60264EF71E080E090E0EA
:100E00000E94630280912202882309F433C18FB7C4
:100E1000F8942091D8013091D9014091DA01509194
:100E2000DB0129873A874B875C878FBF80910A0255
:100E300090910B02A0910C02B0910D0249855A8548
:100E40006B857C85481B590B6A0B7B0B80911602C6
:100E500090911702A0911802B091190248175907F2
:100E60006A077B0708F406C1E0910402F0910502CD
:100E700080819181A281B38189839A83AB83BC8372
:100E8000E0910802F09109029C01AD01608171813D
:100E9000828193810E94EF084B015C012091120234
:100EA00030911302409114025091150269817A81A8
:100EB0008B819C810E94EF086B017C012091F801DD
:100EC0003091F9014091FA015091FB01C501B40143
:100ED0000E94090B20910E0230910F0240911002E6
:100EE000509111020E94F0082B013C0140920E0229
:100EF00050920F0260921002709211023090230201
:100F000031101AC02091F4013091F5014091F601A1
:100F10005091F701C701B6010E94090B9B01AC017A
:100F2000C301B2010E94EF0860930E0270930F029A
:100F3000809310029093110240900E0250900F0285
:100F4000609010027090110210911E0290911F0289
:100F50009E87A0912002AD8700912102212F392F79
:100F60004A2F502FC301B2010E94B40A18160CF088
:100F7000CBC0812F9E85AD85B02F80930E029093BC
:100F80000F02A0931002B0931102332009F4D3C0D2
:100F90002091F4013091F5014091F6015091F70153
:100FA000C501B4010E94090B4B015C012091FC01B9
:100FB0003091FD014091FE015091FF01C701B60142
:100FC0000E94090B9B01AC0160910E0270910F020F
:100FD00080911002909111020E94EF08A5019401E6
:100FE0000E94F0086B017C019B01AC01612F7E85A2
:100FF0008D85902F0E945C0987FD18C010911A0200
:1010000090911B029E87A0911C02AD8700911D024A
:10101000212F392F4A2F502FB601C7010E945C099A
:1010200087FD04C01C2DDE86ED860F2DE0910602A3
:10103000F0910702812F9E85AD85B02F808391832B
:10104000A283B38329813A814B815C812093120270
:1010500030931302409314025093150289859A85A8
:10106000AB85BC8580930A0290930B02A0930C027F
:10107000B0930D028BE291E00E9495026091E00135
:101080007091E1018091E2019091E3010E94E602FA
:101090006CE271E080E090E00E94630220E030E0CA
:1010A00040EF51E46091E4017091E5018091E60127
:1010B0009091E7010E945C0961E018160CF460E071
:1010C00087E00E94E00120E030E040EA52E46091D5
:1010D000E4017091E5018091E6019091E7010E94A1
:1010E000B40A61E087FD60E088E00E94E001A0E0D2
:1010F000B0E0AB2B09F4C1CD0E943D01882309F477
:10110000BCCD0E940000B9CD20911A0230911B0283
:1011100040911C0250911D022D833E834F835887BE
:10112000C301B2010E945C0987FF2FCF8D819E8190
:10113000AF81B88522CF812C912C540137CF052E59
:1011400097FB1EF400940E94B60857FD07D00E943A
:10115000BE0807FC03D04EF40C94B6085095409599
:10116000309521953F4F4F4F5F4F08959095809553
:10117000709561957F4F8F4F9F4F0895A1E21A2E72
:10118000AA1BBB1BFD010DC0AA1FBB1FEE1FFF1F2B
:10119000A217B307E407F50720F0A21BB30BE40B7B
:1011A000F50B661F771F881F991F1A9469F76095C2
:1011B0007095809590959B01AC01BD01CF0108957C
:1011C000A29FB001B39FC001A39F700D811D112488
:1011D000911DB29F700D811D1124911D08955058CD
:1011E000BB27AA270E9407090C947A0A0E946C0A5E
:1011F00038F00E94730A20F039F49F3F19F426F466
:101200000C94690A0EF4E095E7FB0C94630AE92F4D
:101210000E948B0A58F3BA17620773078407950771
:1012200020F079F4A6F50C94AD0A0EF4E0950B2E9F
:10123000BA2FA02D0B01B90190010C01CA01A00128
:101240001124FF27591B99F0593F50F4503E68F183
:101250001A16F040A22F232F342F4427585FF3CFC4
:10126000469537952795A795F0405395C9F77EF495
:101270001F16BA0B620B730B840BBAF09150A1F0DE
:10128000FF0FBB1F661F771F881FC2F70EC0BA0F64
:10129000621F731F841F48F4879577956795B795EC
:1012A000F7959E3F08F0B0CF9395880F08F09927E7
:1012B000EE0F9795879508950E943F0A08F481E004
:1012C00008950E9475090C947A0A0E94730A58F0D6
:1012D0000E946C0A40F029F45F3F29F00C94630AE5
:1012E00051110C94AE0A0C94690A0E948B0A68F39F
:1012F0009923B1F3552391F3951B550BBB27AA27CF
:1013000062177307840738F09F5F5F4F220F331F08
:10131000441FAA1FA9F335D00E2E3AF0E0E832D0D0
:1013200091505040E695001CCAF72BD0FE2F29D0D3
:10133000660F771F881FBB1F261737074807AB07A5
:10134000B0E809F0BB0B802DBF01FF2793585F4F1A
:101350003AF09E3F510578F00C94630A0C94AE0A63
:101360005F3FE4F3983ED4F3869577956795B795FC
:10137000F7959F5FC9F7880F911D9695879597F907
:101380000895E1E0660F771F881FBB1F6217730780
:101390008407BA0720F0621B730B840BBA0BEE1F95
:1013A00088F7E09508950E94930A88F09F5798F077
:1013B000B92F9927B751B0F0E1F0660F771F881F5A
:1013C000991F1AF0BA95C9F714C0B13091F00E9474
:1013D000AD0AB1E008950C94AD0A672F782F8827E5
:1013E000B85F39F0B93FCCF3869577956795B3959B
:1013F000D9F73EF490958095709561957F4F8F4F0A
:101400009F4F0895E89409C097FB3EF4909580950E
:10141000709561957F4F8F4F9F4F9923A9F0F92FBA
:1014200096E9BB279395F695879577956795B79538
:10143000F111F8CFFAF4BB0F11F460FF1BC06F5F1E
:101440007F4F8F4F9F4F16C0882311F096E911C030
:10145000772321F09EE8872F762F05C0662371F051
:1014600096E8862F70E060E02AF09A95660F771F65
:10147000881FDAF7880F9695879597F90895990F41
:101480000008550FAA0BE0E8FEEF16161706E8074E
:10149000F907C0F012161306E407F50798F0621B6F
:1014A000730B840B950B39F40A2661F0232B242B44
:1014B000252B21F408950A2609F4A140A6958FEF63
:1014C000811D811D089597F99F6780E870E060E0B5
:1014D00008959FEF80EC089500240A9416161706CD
:1014E00018060906089500240A9412161306140615
:1014F00005060895092E0394000C11F4882352F078
:10150000BB0F40F4BF2B11F460FF04C06F5F7F4F2F
:101510008F4F9F4F089557FD9058440F551F59F016
:101520005F3F71F04795880F97FB991F61F09F3FD0
:1015300079F087950895121613061406551FF2CFF9
:101540004695F1DF08C0161617061806991FF1CF49
:1015500086957105610508940895E894BB27662770
:101560007727CB0197F908950E943F0A08F48FEF7F
:10157000089516F00C947B0B0C94690A68940C94F3
:10158000630A0E94930AA8F39923C1F3AEF3DF9391
:10159000CF931F930F93FF92C92FDD2788232AF043
:1015A0002197660F771F881FDAF720E030E040E8C8
:1015B0005FEB9FE3883920F0803E38F021968F77EB
:1015C0000E94F008E8E6F0E004C00E94F008E5E9B7
:1015D000F0E00E94890B8B01BE01EC01FB2E6F57DE
:1015E00071097595771F880B990B0E94040A28E1F1
:1015F00032E741E35FE30E941C0BAF2D9801AE017F
:10160000FF900F911F91CF91DF910E9407090C94D9
:101610007A0A0E941C0B0C947A0A0E946C0A38F019
:101620000E94730A20F0952311F00C94630A0C9425
:10163000690A11240C94AE0A0E948B0A70F3959FDC
:10164000C1F3950F50E0551F629FF001729FBB27B9
:10165000F00DB11D639FAA27F00DB11DAA1F649F55
:101660006627B00DA11D661F829F2227B00DA11D08
:10167000621F739FB00DA11D621F839FA00D611D8E
:10168000221F749F3327A00D611D231F849F600DAF
:10169000211D822F762F6A2F11249F5750409AF0D8
:1016A000F1F088234AF0EE0FFF1FBB1F661F771F64
:1016B000881F91505040A9F79E3F510580F00C942F
:1016C000630A0C94AE0A5F3FE4F3983ED4F3869528
:1016D00077956795B795F795E7959F5FC1F7FE2BCF
:1016E000880F911D9695879597F908950E943F0A56
:1016F000880B990B08959F3F31F0915020F4879506
:1017000077956795B795880F911D9695879597F969
:101710000895DF93CF931F930F93FF92EF92DF9281
:101720007B018C01689406C0DA2EEF010E941C0B2D
:10173000FE01E894A5912591359145915591A6F327
:10174000EF010E940709FE019701A801DA9469F7E9
:10175000DF90EF90FF900F911F91CF91DF9108954F
:101760000E94E008B7FF0895821B930B0895EE0FC7
:0E177000FF1F0590F491E02D0994F894FFCF2F
:10177E00000000007301D3000001C00131010F0110
:10178E0023016E616E00696E66006F7666000D0A4B
:10179E000068756D656461643A20006F75743A2057
:0217AE00000039
:00000001FF
